{
  "contractName": "Ticket",
  "abi": [
    {
      "inputs": [],
      "stateMutability": "nonpayable",
      "type": "constructor"
    },
    {
      "anonymous": false,
      "inputs": [
        {
          "indexed": true,
          "internalType": "address",
          "name": "owner",
          "type": "address"
        },
        {
          "indexed": true,
          "internalType": "address",
          "name": "approved",
          "type": "address"
        },
        {
          "indexed": true,
          "internalType": "uint256",
          "name": "tokenId",
          "type": "uint256"
        }
      ],
      "name": "Approval",
      "type": "event"
    },
    {
      "anonymous": false,
      "inputs": [
        {
          "indexed": true,
          "internalType": "address",
          "name": "owner",
          "type": "address"
        },
        {
          "indexed": true,
          "internalType": "address",
          "name": "operator",
          "type": "address"
        },
        {
          "indexed": false,
          "internalType": "bool",
          "name": "approved",
          "type": "bool"
        }
      ],
      "name": "ApprovalForAll",
      "type": "event"
    },
    {
      "anonymous": false,
      "inputs": [
        {
          "indexed": true,
          "internalType": "address",
          "name": "previousOwner",
          "type": "address"
        },
        {
          "indexed": true,
          "internalType": "address",
          "name": "newOwner",
          "type": "address"
        }
      ],
      "name": "OwnershipTransferred",
      "type": "event"
    },
    {
      "anonymous": false,
      "inputs": [
        {
          "indexed": true,
          "internalType": "address",
          "name": "from",
          "type": "address"
        },
        {
          "indexed": true,
          "internalType": "address",
          "name": "to",
          "type": "address"
        },
        {
          "indexed": true,
          "internalType": "uint256",
          "name": "tokenId",
          "type": "uint256"
        }
      ],
      "name": "Transfer",
      "type": "event"
    },
    {
      "inputs": [
        {
          "internalType": "address",
          "name": "to",
          "type": "address"
        },
        {
          "internalType": "uint256",
          "name": "tokenId",
          "type": "uint256"
        }
      ],
      "name": "approve",
      "outputs": [],
      "stateMutability": "nonpayable",
      "type": "function"
    },
    {
      "inputs": [
        {
          "internalType": "address",
          "name": "owner",
          "type": "address"
        }
      ],
      "name": "balanceOf",
      "outputs": [
        {
          "internalType": "uint256",
          "name": "",
          "type": "uint256"
        }
      ],
      "stateMutability": "view",
      "type": "function",
      "constant": true
    },
    {
      "inputs": [
        {
          "internalType": "uint256",
          "name": "tokenId",
          "type": "uint256"
        }
      ],
      "name": "getApproved",
      "outputs": [
        {
          "internalType": "address",
          "name": "",
          "type": "address"
        }
      ],
      "stateMutability": "view",
      "type": "function",
      "constant": true
    },
    {
      "inputs": [
        {
          "internalType": "address",
          "name": "owner",
          "type": "address"
        },
        {
          "internalType": "address",
          "name": "operator",
          "type": "address"
        }
      ],
      "name": "isApprovedForAll",
      "outputs": [
        {
          "internalType": "bool",
          "name": "",
          "type": "bool"
        }
      ],
      "stateMutability": "view",
      "type": "function",
      "constant": true
    },
    {
      "inputs": [],
      "name": "name",
      "outputs": [
        {
          "internalType": "string",
          "name": "",
          "type": "string"
        }
      ],
      "stateMutability": "view",
      "type": "function",
      "constant": true
    },
    {
      "inputs": [],
      "name": "owner",
      "outputs": [
        {
          "internalType": "address",
          "name": "",
          "type": "address"
        }
      ],
      "stateMutability": "view",
      "type": "function",
      "constant": true
    },
    {
      "inputs": [
        {
          "internalType": "uint256",
          "name": "tokenId",
          "type": "uint256"
        }
      ],
      "name": "ownerOf",
      "outputs": [
        {
          "internalType": "address",
          "name": "",
          "type": "address"
        }
      ],
      "stateMutability": "view",
      "type": "function",
      "constant": true
    },
    {
      "inputs": [],
      "name": "renounceOwnership",
      "outputs": [],
      "stateMutability": "nonpayable",
      "type": "function"
    },
    {
      "inputs": [
        {
          "internalType": "address",
          "name": "from",
          "type": "address"
        },
        {
          "internalType": "address",
          "name": "to",
          "type": "address"
        },
        {
          "internalType": "uint256",
          "name": "tokenId",
          "type": "uint256"
        }
      ],
      "name": "safeTransferFrom",
      "outputs": [],
      "stateMutability": "nonpayable",
      "type": "function"
    },
    {
      "inputs": [
        {
          "internalType": "address",
          "name": "from",
          "type": "address"
        },
        {
          "internalType": "address",
          "name": "to",
          "type": "address"
        },
        {
          "internalType": "uint256",
          "name": "tokenId",
          "type": "uint256"
        },
        {
          "internalType": "bytes",
          "name": "data",
          "type": "bytes"
        }
      ],
      "name": "safeTransferFrom",
      "outputs": [],
      "stateMutability": "nonpayable",
      "type": "function"
    },
    {
      "inputs": [
        {
          "internalType": "address",
          "name": "operator",
          "type": "address"
        },
        {
          "internalType": "bool",
          "name": "approved",
          "type": "bool"
        }
      ],
      "name": "setApprovalForAll",
      "outputs": [],
      "stateMutability": "nonpayable",
      "type": "function"
    },
    {
      "inputs": [
        {
          "internalType": "bytes4",
          "name": "interfaceId",
          "type": "bytes4"
        }
      ],
      "name": "supportsInterface",
      "outputs": [
        {
          "internalType": "bool",
          "name": "",
          "type": "bool"
        }
      ],
      "stateMutability": "view",
      "type": "function",
      "constant": true
    },
    {
      "inputs": [],
      "name": "symbol",
      "outputs": [
        {
          "internalType": "string",
          "name": "",
          "type": "string"
        }
      ],
      "stateMutability": "view",
      "type": "function",
      "constant": true
    },
    {
      "inputs": [
        {
          "internalType": "uint256",
          "name": "",
          "type": "uint256"
        }
      ],
      "name": "tickets",
      "outputs": [
        {
          "internalType": "string",
          "name": "title",
          "type": "string"
        },
        {
          "internalType": "string",
          "name": "venue",
          "type": "string"
        },
        {
          "internalType": "uint256",
          "name": "date",
          "type": "uint256"
        },
        {
          "internalType": "uint256",
          "name": "price",
          "type": "uint256"
        },
        {
          "internalType": "string",
          "name": "imageURI",
          "type": "string"
        }
      ],
      "stateMutability": "view",
      "type": "function",
      "constant": true
    },
    {
      "inputs": [
        {
          "internalType": "uint256",
          "name": "index",
          "type": "uint256"
        }
      ],
      "name": "tokenByIndex",
      "outputs": [
        {
          "internalType": "uint256",
          "name": "",
          "type": "uint256"
        }
      ],
      "stateMutability": "view",
      "type": "function",
      "constant": true
    },
    {
      "inputs": [
        {
          "internalType": "address",
          "name": "owner",
          "type": "address"
        },
        {
          "internalType": "uint256",
          "name": "index",
          "type": "uint256"
        }
      ],
      "name": "tokenOfOwnerByIndex",
      "outputs": [
        {
          "internalType": "uint256",
          "name": "",
          "type": "uint256"
        }
      ],
      "stateMutability": "view",
      "type": "function",
      "constant": true
    },
    {
      "inputs": [
        {
          "internalType": "uint256",
          "name": "tokenId",
          "type": "uint256"
        }
      ],
      "name": "tokenURI",
      "outputs": [
        {
          "internalType": "string",
          "name": "",
          "type": "string"
        }
      ],
      "stateMutability": "view",
      "type": "function",
      "constant": true
    },
    {
      "inputs": [],
      "name": "totalSupply",
      "outputs": [
        {
          "internalType": "uint256",
          "name": "",
          "type": "uint256"
        }
      ],
      "stateMutability": "view",
      "type": "function",
      "constant": true
    },
    {
      "inputs": [
        {
          "internalType": "address",
          "name": "from",
          "type": "address"
        },
        {
          "internalType": "address",
          "name": "to",
          "type": "address"
        },
        {
          "internalType": "uint256",
          "name": "tokenId",
          "type": "uint256"
        }
      ],
      "name": "transferFrom",
      "outputs": [],
      "stateMutability": "nonpayable",
      "type": "function"
    },
    {
      "inputs": [
        {
          "internalType": "address",
          "name": "newOwner",
          "type": "address"
        }
      ],
      "name": "transferOwnership",
      "outputs": [],
      "stateMutability": "nonpayable",
      "type": "function"
    },
    {
      "inputs": [
        {
          "internalType": "string",
          "name": "title",
          "type": "string"
        },
        {
          "internalType": "string",
          "name": "venue",
          "type": "string"
        },
        {
          "internalType": "uint256",
          "name": "date",
          "type": "uint256"
        },
        {
          "internalType": "uint256",
          "name": "price",
          "type": "uint256"
        },
        {
          "internalType": "string",
          "name": "imageURI",
          "type": "string"
        }
      ],
      "name": "mintTicket",
      "outputs": [],
      "stateMutability": "nonpayable",
      "type": "function"
    },
    {
      "inputs": [
        {
          "internalType": "uint256",
          "name": "tokenId",
          "type": "uint256"
        }
      ],
      "name": "buyTicket",
      "outputs": [],
      "stateMutability": "payable",
      "type": "function",
      "payable": true
    }
  ],
  "bytecode": "0x60806040523480156200001157600080fd5b506040518060400160405280600b81526020017f5469636b6574546f6b656e0000000000000000000000000000000000000000008152506040518060400160405280600481526020017f5449434b0000000000000000000000000000000000000000000000000000000081525081600090816200008f919062000412565b508060019081620000a1919062000412565b505050620000c4620000b8620000ca60201b60201c565b620000d260201b60201c565b620004f9565b600033905090565b6000600a60009054906101000a900473ffffffffffffffffffffffffffffffffffffffff16905081600a60006101000a81548173ffffffffffffffffffffffffffffffffffffffff021916908373ffffffffffffffffffffffffffffffffffffffff1602179055508173ffffffffffffffffffffffffffffffffffffffff168173ffffffffffffffffffffffffffffffffffffffff167f8be0079c531659141344cd1fd0a4f28419497f9722a3daafe3b4186f6b6457e060405160405180910390a35050565b600081519050919050565b7f4e487b7100000000000000000000000000000000000000000000000000000000600052604160045260246000fd5b7f4e487b7100000000000000000000000000000000000000000000000000000000600052602260045260246000fd5b600060028204905060018216806200021a57607f821691505b60208210810362000230576200022f620001d2565b5b50919050565b60008190508160005260206000209050919050565b60006020601f8301049050919050565b600082821b905092915050565b6000600883026200029a7fffffffffffffffffffffffffffffffffffffffffffffffffffffffffffffffff826200025b565b620002a686836200025b565b95508019841693508086168417925050509392505050565b6000819050919050565b6000819050919050565b6000620002f3620002ed620002e784620002be565b620002c8565b620002be565b9050919050565b6000819050919050565b6200030f83620002d2565b620003276200031e82620002fa565b84845462000268565b825550505050565b600090565b6200033e6200032f565b6200034b81848462000304565b505050565b5b8181101562000373576200036760008262000334565b60018101905062000351565b5050565b601f821115620003c2576200038c8162000236565b62000397846200024b565b81016020851015620003a7578190505b620003bf620003b6856200024b565b83018262000350565b50505b505050565b600082821c905092915050565b6000620003e760001984600802620003c7565b1980831691505092915050565b6000620004028383620003d4565b9150826002028217905092915050565b6200041d8262000198565b67ffffffffffffffff811115620004395762000438620001a3565b5b62000445825462000201565b6200045282828562000377565b600060209050601f8311600181146200048a576000841562000475578287015190505b620004818582620003f4565b865550620004f1565b601f1984166200049a8662000236565b60005b82811015620004c4578489015182556001820191506020850194506020810190506200049d565b86831015620004e45784890151620004e0601f891682620003d4565b8355505b6001600288020188555050505b505050505050565b613a9080620005096000396000f3fe6080604052600436106101355760003560e01c806367dd74ca116100ab57806395d89b411161006f57806395d89b4114610441578063a22cb4651461046c578063b88d4fde14610495578063c87b56dd146104be578063e985e9c5146104fb578063f2fde38b1461053857610135565b806367dd74ca1461037d57806370a0823114610399578063715018a6146103d65780638da5cb5b146103ed578063908e2c961461041857610135565b806323b872dd116100fd57806323b872dd146102335780632f745c591461025c57806342842e0e146102995780634f6ccce7146102c257806350b44712146102ff5780636352211e1461034057610135565b806301ffc9a71461013a57806306fdde0314610177578063081812fc146101a2578063095ea7b3146101df57806318160ddd14610208575b600080fd5b34801561014657600080fd5b50610161600480360381019061015c919061250d565b610561565b60405161016e9190612555565b60405180910390f35b34801561018357600080fd5b5061018c6105db565b6040516101999190612600565b60405180910390f35b3480156101ae57600080fd5b506101c960048036038101906101c49190612658565b61066d565b6040516101d691906126c6565b60405180910390f35b3480156101eb57600080fd5b506102066004803603810190610201919061270d565b6106b3565b005b34801561021457600080fd5b5061021d6107ca565b60405161022a919061275c565b60405180910390f35b34801561023f57600080fd5b5061025a60048036038101906102559190612777565b6107d7565b005b34801561026857600080fd5b50610283600480360381019061027e919061270d565b610837565b604051610290919061275c565b60405180910390f35b3480156102a557600080fd5b506102c060048036038101906102bb9190612777565b6108dc565b005b3480156102ce57600080fd5b506102e960048036038101906102e49190612658565b6108fc565b6040516102f6919061275c565b60405180910390f35b34801561030b57600080fd5b5061032660048036038101906103219190612658565b61096d565b6040516103379594939291906127ca565b60405180910390f35b34801561034c57600080fd5b5061036760048036038101906103629190612658565b610b3b565b60405161037491906126c6565b60405180910390f35b61039760048036038101906103929190612658565b610bc1565b005b3480156103a557600080fd5b506103c060048036038101906103bb9190612832565b610c7c565b6040516103cd919061275c565b60405180910390f35b3480156103e257600080fd5b506103eb610d33565b005b3480156103f957600080fd5b50610402610d47565b60405161040f91906126c6565b60405180910390f35b34801561042457600080fd5b5061043f600480360381019061043a9190612994565b610d71565b005b34801561044d57600080fd5b50610456610e39565b6040516104639190612600565b60405180910390f35b34801561047857600080fd5b50610493600480360381019061048e9190612a8f565b610ecb565b005b3480156104a157600080fd5b506104bc60048036038101906104b79190612b70565b610ee1565b005b3480156104ca57600080fd5b506104e560048036038101906104e09190612658565b610f43565b6040516104f29190612600565b60405180910390f35b34801561050757600080fd5b50610522600480360381019061051d9190612bf3565b610fab565b60405161052f9190612555565b60405180910390f35b34801561054457600080fd5b5061055f600480360381019061055a9190612832565b61103f565b005b60007f780e9d63000000000000000000000000000000000000000000000000000000007bffffffffffffffffffffffffffffffffffffffffffffffffffffffff1916827bffffffffffffffffffffffffffffffffffffffffffffffffffffffff191614806105d457506105d3826110c2565b5b9050919050565b6060600080546105ea90612c62565b80601f016020809104026020016040519081016040528092919081815260200182805461061690612c62565b80156106635780601f1061063857610100808354040283529160200191610663565b820191906000526020600020905b81548152906001019060200180831161064657829003601f168201915b5050505050905090565b6000610678826111a4565b6004600083815260200190815260200160002060009054906101000a900473ffffffffffffffffffffffffffffffffffffffff169050919050565b60006106be82610b3b565b90508073ffffffffffffffffffffffffffffffffffffffff168373ffffffffffffffffffffffffffffffffffffffff160361072e576040517f08c379a000000000000000000000000000000000000000000000000000000000815260040161072590612d05565b60405180910390fd5b8073ffffffffffffffffffffffffffffffffffffffff1661074d6111ef565b73ffffffffffffffffffffffffffffffffffffffff16148061077c575061077b816107766111ef565b610fab565b5b6107bb576040517f08c379a00000000000000000000000000000000000000000000000000000000081526004016107b290612d97565b60405180910390fd5b6107c583836111f7565b505050565b6000600880549050905090565b6107e86107e26111ef565b826112b0565b610827576040517f08c379a000000000000000000000000000000000000000000000000000000000815260040161081e90612e29565b60405180910390fd5b610832838383611345565b505050565b600061084283610c7c565b8210610883576040517f08c379a000000000000000000000000000000000000000000000000000000000815260040161087a90612ebb565b60405180910390fd5b600660008473ffffffffffffffffffffffffffffffffffffffff1673ffffffffffffffffffffffffffffffffffffffff168152602001908152602001600020600083815260200190815260200160002054905092915050565b6108f783838360405180602001604052806000815250610ee1565b505050565b60006109066107ca565b8210610947576040517f08c379a000000000000000000000000000000000000000000000000000000000815260040161093e90612f4d565b60405180910390fd5b6008828154811061095b5761095a612f6d565b5b90600052602060002001549050919050565b600c60205280600052604060002060009150905080600001805461099090612c62565b80601f01602080910402602001604051908101604052809291908181526020018280546109bc90612c62565b8015610a095780601f106109de57610100808354040283529160200191610a09565b820191906000526020600020905b8154815290600101906020018083116109ec57829003601f168201915b505050505090806001018054610a1e90612c62565b80601f0160208091040260200160405190810160405280929190818152602001828054610a4a90612c62565b8015610a975780601f10610a6c57610100808354040283529160200191610a97565b820191906000526020600020905b815481529060010190602001808311610a7a57829003601f168201915b505050505090806002015490806003015490806004018054610ab890612c62565b80601f0160208091040260200160405190810160405280929190818152602001828054610ae490612c62565b8015610b315780601f10610b0657610100808354040283529160200191610b31565b820191906000526020600020905b815481529060010190602001808311610b1457829003601f168201915b5050505050905085565b600080610b478361163e565b9050600073ffffffffffffffffffffffffffffffffffffffff168173ffffffffffffffffffffffffffffffffffffffff1603610bb8576040517f08c379a0000000000000000000000000000000000000000000000000000000008152600401610baf90612fe8565b60405180910390fd5b80915050919050565b600c6000828152602001908152602001600020600301543414610c19576040517f08c379a0000000000000000000000000000000000000000000000000000000008152600401610c1090613054565b60405180910390fd5b6000610c2482610b3b565b90508073ffffffffffffffffffffffffffffffffffffffff166108fc349081150290604051600060405180830381858888f19350505050158015610c6c573d6000803e3d6000fd5b50610c78813384611345565b5050565b60008073ffffffffffffffffffffffffffffffffffffffff168273ffffffffffffffffffffffffffffffffffffffff1603610cec576040517f08c379a0000000000000000000000000000000000000000000000000000000008152600401610ce3906130e6565b60405180910390fd5b600360008373ffffffffffffffffffffffffffffffffffffffff1673ffffffffffffffffffffffffffffffffffffffff168152602001908152602001600020549050919050565b610d3b61167b565b610d4560006116f9565b565b6000600a60009054906101000a900473ffffffffffffffffffffffffffffffffffffffff16905090565b610d7961167b565b600b6000815480929190610d8c90613135565b91905055506040518060a0016040528086815260200185815260200184815260200183815260200182815250600c6000600b5481526020019081526020016000206000820151816000019081610de29190613329565b506020820151816001019081610df89190613329565b5060408201518160020155606082015181600301556080820151816004019081610e229190613329565b50905050610e3233600b546117bf565b5050505050565b606060018054610e4890612c62565b80601f0160208091040260200160405190810160405280929190818152602001828054610e7490612c62565b8015610ec15780601f10610e9657610100808354040283529160200191610ec1565b820191906000526020600020905b815481529060010190602001808311610ea457829003601f168201915b5050505050905090565b610edd610ed66111ef565b83836119dc565b5050565b610ef2610eec6111ef565b836112b0565b610f31576040517f08c379a0000000000000000000000000000000000000000000000000000000008152600401610f2890612e29565b60405180910390fd5b610f3d84848484611b48565b50505050565b6060610f4e826111a4565b6000610f58611ba4565b90506000815111610f785760405180602001604052806000815250610fa3565b80610f8284611bbb565b604051602001610f93929190613437565b6040516020818303038152906040525b915050919050565b6000600560008473ffffffffffffffffffffffffffffffffffffffff1673ffffffffffffffffffffffffffffffffffffffff16815260200190815260200160002060008373ffffffffffffffffffffffffffffffffffffffff1673ffffffffffffffffffffffffffffffffffffffff16815260200190815260200160002060009054906101000a900460ff16905092915050565b61104761167b565b600073ffffffffffffffffffffffffffffffffffffffff168173ffffffffffffffffffffffffffffffffffffffff16036110b6576040517f08c379a00000000000000000000000000000000000000000000000000000000081526004016110ad906134cd565b60405180910390fd5b6110bf816116f9565b50565b60007f80ac58cd000000000000000000000000000000000000000000000000000000007bffffffffffffffffffffffffffffffffffffffffffffffffffffffff1916827bffffffffffffffffffffffffffffffffffffffffffffffffffffffff1916148061118d57507f5b5e139f000000000000000000000000000000000000000000000000000000007bffffffffffffffffffffffffffffffffffffffffffffffffffffffff1916827bffffffffffffffffffffffffffffffffffffffffffffffffffffffff1916145b8061119d575061119c82611c89565b5b9050919050565b6111ad81611cf3565b6111ec576040517f08c379a00000000000000000000000000000000000000000000000000000000081526004016111e390612fe8565b60405180910390fd5b50565b600033905090565b816004600083815260200190815260200160002060006101000a81548173ffffffffffffffffffffffffffffffffffffffff021916908373ffffffffffffffffffffffffffffffffffffffff160217905550808273ffffffffffffffffffffffffffffffffffffffff1661126a83610b3b565b73ffffffffffffffffffffffffffffffffffffffff167f8c5be1e5ebec7d5bd14f71427d1e84f3dd0314c0f7b2291e5b200ac8c7c3b92560405160405180910390a45050565b6000806112bc83610b3b565b90508073ffffffffffffffffffffffffffffffffffffffff168473ffffffffffffffffffffffffffffffffffffffff1614806112fe57506112fd8185610fab565b5b8061133c57508373ffffffffffffffffffffffffffffffffffffffff166113248461066d565b73ffffffffffffffffffffffffffffffffffffffff16145b91505092915050565b8273ffffffffffffffffffffffffffffffffffffffff1661136582610b3b565b73ffffffffffffffffffffffffffffffffffffffff16146113bb576040517f08c379a00000000000000000000000000000000000000000000000000000000081526004016113b29061355f565b60405180910390fd5b600073ffffffffffffffffffffffffffffffffffffffff168273ffffffffffffffffffffffffffffffffffffffff160361142a576040517f08c379a0000000000000000000000000000000000000000000000000000000008152600401611421906135f1565b60405180910390fd5b6114378383836001611d34565b8273ffffffffffffffffffffffffffffffffffffffff1661145782610b3b565b73ffffffffffffffffffffffffffffffffffffffff16146114ad576040517f08c379a00000000000000000000000000000000000000000000000000000000081526004016114a49061355f565b60405180910390fd5b6004600082815260200190815260200160002060006101000a81549073ffffffffffffffffffffffffffffffffffffffff02191690556001600360008573ffffffffffffffffffffffffffffffffffffffff1673ffffffffffffffffffffffffffffffffffffffff168152602001908152602001600020600082825403925050819055506001600360008473ffffffffffffffffffffffffffffffffffffffff1673ffffffffffffffffffffffffffffffffffffffff16815260200190815260200160002060008282540192505081905550816002600083815260200190815260200160002060006101000a81548173ffffffffffffffffffffffffffffffffffffffff021916908373ffffffffffffffffffffffffffffffffffffffff160217905550808273ffffffffffffffffffffffffffffffffffffffff168473ffffffffffffffffffffffffffffffffffffffff167fddf252ad1be2c89b69c2b068fc378daa952ba7f163c4a11628f55a4df523b3ef60405160405180910390a46116398383836001611e92565b505050565b60006002600083815260200190815260200160002060009054906101000a900473ffffffffffffffffffffffffffffffffffffffff169050919050565b6116836111ef565b73ffffffffffffffffffffffffffffffffffffffff166116a1610d47565b73ffffffffffffffffffffffffffffffffffffffff16146116f7576040517f08c379a00000000000000000000000000000000000000000000000000000000081526004016116ee9061365d565b60405180910390fd5b565b6000600a60009054906101000a900473ffffffffffffffffffffffffffffffffffffffff16905081600a60006101000a81548173ffffffffffffffffffffffffffffffffffffffff021916908373ffffffffffffffffffffffffffffffffffffffff1602179055508173ffffffffffffffffffffffffffffffffffffffff168173ffffffffffffffffffffffffffffffffffffffff167f8be0079c531659141344cd1fd0a4f28419497f9722a3daafe3b4186f6b6457e060405160405180910390a35050565b600073ffffffffffffffffffffffffffffffffffffffff168273ffffffffffffffffffffffffffffffffffffffff160361182e576040517f08c379a0000000000000000000000000000000000000000000000000000000008152600401611825906136c9565b60405180910390fd5b61183781611cf3565b15611877576040517f08c379a000000000000000000000000000000000000000000000000000000000815260040161186e90613735565b60405180910390fd5b611885600083836001611d34565b61188e81611cf3565b156118ce576040517f08c379a00000000000000000000000000000000000000000000000000000000081526004016118c590613735565b60405180910390fd5b6001600360008473ffffffffffffffffffffffffffffffffffffffff1673ffffffffffffffffffffffffffffffffffffffff16815260200190815260200160002060008282540192505081905550816002600083815260200190815260200160002060006101000a81548173ffffffffffffffffffffffffffffffffffffffff021916908373ffffffffffffffffffffffffffffffffffffffff160217905550808273ffffffffffffffffffffffffffffffffffffffff16600073ffffffffffffffffffffffffffffffffffffffff167fddf252ad1be2c89b69c2b068fc378daa952ba7f163c4a11628f55a4df523b3ef60405160405180910390a46119d8600083836001611e92565b5050565b8173ffffffffffffffffffffffffffffffffffffffff168373ffffffffffffffffffffffffffffffffffffffff1603611a4a576040517f08c379a0000000000000000000000000000000000000000000000000000000008152600401611a41906137a1565b60405180910390fd5b80600560008573ffffffffffffffffffffffffffffffffffffffff1673ffffffffffffffffffffffffffffffffffffffff16815260200190815260200160002060008473ffffffffffffffffffffffffffffffffffffffff1673ffffffffffffffffffffffffffffffffffffffff16815260200190815260200160002060006101000a81548160ff0219169083151502179055508173ffffffffffffffffffffffffffffffffffffffff168373ffffffffffffffffffffffffffffffffffffffff167f17307eab39ab6107e8899845ad3d59bd9653f200f220920489ca2b5937696c3183604051611b3b9190612555565b60405180910390a3505050565b611b53848484611345565b611b5f84848484611e98565b611b9e576040517f08c379a0000000000000000000000000000000000000000000000000000000008152600401611b9590613833565b60405180910390fd5b50505050565b606060405180602001604052806000815250905090565b606060006001611bca8461201f565b01905060008167ffffffffffffffff811115611be957611be8612869565b5b6040519080825280601f01601f191660200182016040528015611c1b5781602001600182028036833780820191505090505b509050600082602001820190505b600115611c7e578080600190039150507f3031323334353637383961626364656600000000000000000000000000000000600a86061a8153600a8581611c7257611c71613853565b5b04945060008503611c29575b819350505050919050565b60007f01ffc9a7000000000000000000000000000000000000000000000000000000007bffffffffffffffffffffffffffffffffffffffffffffffffffffffff1916827bffffffffffffffffffffffffffffffffffffffffffffffffffffffff1916149050919050565b60008073ffffffffffffffffffffffffffffffffffffffff16611d158361163e565b73ffffffffffffffffffffffffffffffffffffffff1614159050919050565b611d4084848484612172565b6001811115611d84576040517f08c379a0000000000000000000000000000000000000000000000000000000008152600401611d7b906138f4565b60405180910390fd5b6000829050600073ffffffffffffffffffffffffffffffffffffffff168573ffffffffffffffffffffffffffffffffffffffff1603611dcb57611dc681612178565b611e0a565b8373ffffffffffffffffffffffffffffffffffffffff168573ffffffffffffffffffffffffffffffffffffffff1614611e0957611e0885826121c1565b5b5b600073ffffffffffffffffffffffffffffffffffffffff168473ffffffffffffffffffffffffffffffffffffffff1603611e4c57611e478161232e565b611e8b565b8473ffffffffffffffffffffffffffffffffffffffff168473ffffffffffffffffffffffffffffffffffffffff1614611e8a57611e8984826123ff565b5b5b5050505050565b50505050565b6000611eb98473ffffffffffffffffffffffffffffffffffffffff1661247e565b15612012578373ffffffffffffffffffffffffffffffffffffffff1663150b7a02611ee26111ef565b8786866040518563ffffffff1660e01b8152600401611f049493929190613969565b6020604051808303816000875af1925050508015611f4057506040513d601f19601f82011682018060405250810190611f3d91906139ca565b60015b611fc2573d8060008114611f70576040519150601f19603f3d011682016040523d82523d6000602084013e611f75565b606091505b506000815103611fba576040517f08c379a0000000000000000000000000000000000000000000000000000000008152600401611fb190613833565b60405180910390fd5b805181602001fd5b63150b7a0260e01b7bffffffffffffffffffffffffffffffffffffffffffffffffffffffff1916817bffffffffffffffffffffffffffffffffffffffffffffffffffffffff191614915050612017565b600190505b949350505050565b600080600090507a184f03e93ff9f4daa797ed6e38ed64bf6a1f010000000000000000831061207d577a184f03e93ff9f4daa797ed6e38ed64bf6a1f010000000000000000838161207357612072613853565b5b0492506040810190505b6d04ee2d6d415b85acef810000000083106120ba576d04ee2d6d415b85acef810000000083816120b0576120af613853565b5b0492506020810190505b662386f26fc1000083106120e957662386f26fc1000083816120df576120de613853565b5b0492506010810190505b6305f5e1008310612112576305f5e100838161210857612107613853565b5b0492506008810190505b612710831061213757612710838161212d5761212c613853565b5b0492506004810190505b6064831061215a57606483816121505761214f613853565b5b0492506002810190505b600a8310612169576001810190505b80915050919050565b50505050565b6008805490506009600083815260200190815260200160002081905550600881908060018154018082558091505060019003906000526020600020016000909190919091505550565b600060016121ce84610c7c565b6121d891906139f7565b90506000600760008481526020019081526020016000205490508181146122bd576000600660008673ffffffffffffffffffffffffffffffffffffffff1673ffffffffffffffffffffffffffffffffffffffff168152602001908152602001600020600084815260200190815260200160002054905080600660008773ffffffffffffffffffffffffffffffffffffffff1673ffffffffffffffffffffffffffffffffffffffff168152602001908152602001600020600084815260200190815260200160002081905550816007600083815260200190815260200160002081905550505b6007600084815260200190815260200160002060009055600660008573ffffffffffffffffffffffffffffffffffffffff1673ffffffffffffffffffffffffffffffffffffffff16815260200190815260200160002060008381526020019081526020016000206000905550505050565b6000600160088054905061234291906139f7565b905060006009600084815260200190815260200160002054905060006008838154811061237257612371612f6d565b5b90600052602060002001549050806008838154811061239457612393612f6d565b5b9060005260206000200181905550816009600083815260200190815260200160002081905550600960008581526020019081526020016000206000905560088054806123e3576123e2613a2b565b5b6001900381819060005260206000200160009055905550505050565b600061240a83610c7c565b905081600660008573ffffffffffffffffffffffffffffffffffffffff1673ffffffffffffffffffffffffffffffffffffffff168152602001908152602001600020600083815260200190815260200160002081905550806007600084815260200190815260200160002081905550505050565b6000808273ffffffffffffffffffffffffffffffffffffffff163b119050919050565b6000604051905090565b600080fd5b600080fd5b60007fffffffff0000000000000000000000000000000000000000000000000000000082169050919050565b6124ea816124b5565b81146124f557600080fd5b50565b600081359050612507816124e1565b92915050565b600060208284031215612523576125226124ab565b5b6000612531848285016124f8565b91505092915050565b60008115159050919050565b61254f8161253a565b82525050565b600060208201905061256a6000830184612546565b92915050565b600081519050919050565b600082825260208201905092915050565b60005b838110156125aa57808201518184015260208101905061258f565b60008484015250505050565b6000601f19601f8301169050919050565b60006125d282612570565b6125dc818561257b565b93506125ec81856020860161258c565b6125f5816125b6565b840191505092915050565b6000602082019050818103600083015261261a81846125c7565b905092915050565b6000819050919050565b61263581612622565b811461264057600080fd5b50565b6000813590506126528161262c565b92915050565b60006020828403121561266e5761266d6124ab565b5b600061267c84828501612643565b91505092915050565b600073ffffffffffffffffffffffffffffffffffffffff82169050919050565b60006126b082612685565b9050919050565b6126c0816126a5565b82525050565b60006020820190506126db60008301846126b7565b92915050565b6126ea816126a5565b81146126f557600080fd5b50565b600081359050612707816126e1565b92915050565b60008060408385031215612724576127236124ab565b5b6000612732858286016126f8565b925050602061274385828601612643565b9150509250929050565b61275681612622565b82525050565b6000602082019050612771600083018461274d565b92915050565b6000806000606084860312156127905761278f6124ab565b5b600061279e868287016126f8565b93505060206127af868287016126f8565b92505060406127c086828701612643565b9150509250925092565b600060a08201905081810360008301526127e481886125c7565b905081810360208301526127f881876125c7565b9050612807604083018661274d565b612814606083018561274d565b818103608083015261282681846125c7565b90509695505050505050565b600060208284031215612848576128476124ab565b5b6000612856848285016126f8565b91505092915050565b600080fd5b600080fd5b7f4e487b7100000000000000000000000000000000000000000000000000000000600052604160045260246000fd5b6128a1826125b6565b810181811067ffffffffffffffff821117156128c0576128bf612869565b5b80604052505050565b60006128d36124a1565b90506128df8282612898565b919050565b600067ffffffffffffffff8211156128ff576128fe612869565b5b612908826125b6565b9050602081019050919050565b82818337600083830152505050565b6000612937612932846128e4565b6128c9565b90508281526020810184848401111561295357612952612864565b5b61295e848285612915565b509392505050565b600082601f83011261297b5761297a61285f565b5b813561298b848260208601612924565b91505092915050565b600080600080600060a086880312156129b0576129af6124ab565b5b600086013567ffffffffffffffff8111156129ce576129cd6124b0565b5b6129da88828901612966565b955050602086013567ffffffffffffffff8111156129fb576129fa6124b0565b5b612a0788828901612966565b9450506040612a1888828901612643565b9350506060612a2988828901612643565b925050608086013567ffffffffffffffff811115612a4a57612a496124b0565b5b612a5688828901612966565b9150509295509295909350565b612a6c8161253a565b8114612a7757600080fd5b50565b600081359050612a8981612a63565b92915050565b60008060408385031215612aa657612aa56124ab565b5b6000612ab4858286016126f8565b9250506020612ac585828601612a7a565b9150509250929050565b600067ffffffffffffffff821115612aea57612ae9612869565b5b612af3826125b6565b9050602081019050919050565b6000612b13612b0e84612acf565b6128c9565b905082815260208101848484011115612b2f57612b2e612864565b5b612b3a848285612915565b509392505050565b600082601f830112612b5757612b5661285f565b5b8135612b67848260208601612b00565b91505092915050565b60008060008060808587031215612b8a57612b896124ab565b5b6000612b98878288016126f8565b9450506020612ba9878288016126f8565b9350506040612bba87828801612643565b925050606085013567ffffffffffffffff811115612bdb57612bda6124b0565b5b612be787828801612b42565b91505092959194509250565b60008060408385031215612c0a57612c096124ab565b5b6000612c18858286016126f8565b9250506020612c29858286016126f8565b9150509250929050565b7f4e487b7100000000000000000000000000000000000000000000000000000000600052602260045260246000fd5b60006002820490506001821680612c7a57607f821691505b602082108103612c8d57612c8c612c33565b5b50919050565b7f4552433732313a20617070726f76616c20746f2063757272656e74206f776e6560008201527f7200000000000000000000000000000000000000000000000000000000000000602082015250565b6000612cef60218361257b565b9150612cfa82612c93565b604082019050919050565b60006020820190508181036000830152612d1e81612ce2565b9050919050565b7f4552433732313a20617070726f76652063616c6c6572206973206e6f7420746f60008201527f6b656e206f776e6572206f7220617070726f76656420666f7220616c6c000000602082015250565b6000612d81603d8361257b565b9150612d8c82612d25565b604082019050919050565b60006020820190508181036000830152612db081612d74565b9050919050565b7f4552433732313a2063616c6c6572206973206e6f7420746f6b656e206f776e6560008201527f72206f7220617070726f76656400000000000000000000000000000000000000602082015250565b6000612e13602d8361257b565b9150612e1e82612db7565b604082019050919050565b60006020820190508181036000830152612e4281612e06565b9050919050565b7f455243373231456e756d657261626c653a206f776e657220696e646578206f7560008201527f74206f6620626f756e6473000000000000000000000000000000000000000000602082015250565b6000612ea5602b8361257b565b9150612eb082612e49565b604082019050919050565b60006020820190508181036000830152612ed481612e98565b9050919050565b7f455243373231456e756d657261626c653a20676c6f62616c20696e646578206f60008201527f7574206f6620626f756e64730000000000000000000000000000000000000000602082015250565b6000612f37602c8361257b565b9150612f4282612edb565b604082019050919050565b60006020820190508181036000830152612f6681612f2a565b9050919050565b7f4e487b7100000000000000000000000000000000000000000000000000000000600052603260045260246000fd5b7f4552433732313a20696e76616c696420746f6b656e2049440000000000000000600082015250565b6000612fd260188361257b565b9150612fdd82612f9c565b602082019050919050565b6000602082019050818103600083015261300181612fc5565b9050919050565b7f496e636f7272656374207061796d656e7420616d6f756e740000000000000000600082015250565b600061303e60188361257b565b915061304982613008565b602082019050919050565b6000602082019050818103600083015261306d81613031565b9050919050565b7f4552433732313a2061646472657373207a65726f206973206e6f74206120766160008201527f6c6964206f776e65720000000000000000000000000000000000000000000000602082015250565b60006130d060298361257b565b91506130db82613074565b604082019050919050565b600060208201905081810360008301526130ff816130c3565b9050919050565b7f4e487b7100000000000000000000000000000000000000000000000000000000600052601160045260246000fd5b600061314082612622565b91507fffffffffffffffffffffffffffffffffffffffffffffffffffffffffffffffff820361317257613171613106565b5b600182019050919050565b60008190508160005260206000209050919050565b60006020601f8301049050919050565b600082821b905092915050565b6000600883026131df7fffffffffffffffffffffffffffffffffffffffffffffffffffffffffffffffff826131a2565b6131e986836131a2565b95508019841693508086168417925050509392505050565b6000819050919050565b600061322661322161321c84612622565b613201565b612622565b9050919050565b6000819050919050565b6132408361320b565b61325461324c8261322d565b8484546131af565b825550505050565b600090565b61326961325c565b613274818484613237565b505050565b5b818110156132985761328d600082613261565b60018101905061327a565b5050565b601f8211156132dd576132ae8161317d565b6132b784613192565b810160208510156132c6578190505b6132da6132d285613192565b830182613279565b50505b505050565b600082821c905092915050565b6000613300600019846008026132e2565b1980831691505092915050565b600061331983836132ef565b9150826002028217905092915050565b61333282612570565b67ffffffffffffffff81111561334b5761334a612869565b5b6133558254612c62565b61336082828561329c565b600060209050601f8311600181146133935760008415613381578287015190505b61338b858261330d565b8655506133f3565b601f1984166133a18661317d565b60005b828110156133c9578489015182556001820191506020850194506020810190506133a4565b868310156133e657848901516133e2601f8916826132ef565b8355505b6001600288020188555050505b505050505050565b600081905092915050565b600061341182612570565b61341b81856133fb565b935061342b81856020860161258c565b80840191505092915050565b60006134438285613406565b915061344f8284613406565b91508190509392505050565b7f4f776e61626c653a206e6577206f776e657220697320746865207a65726f206160008201527f6464726573730000000000000000000000000000000000000000000000000000602082015250565b60006134b760268361257b565b91506134c28261345b565b604082019050919050565b600060208201905081810360008301526134e6816134aa565b9050919050565b7f4552433732313a207472616e736665722066726f6d20696e636f72726563742060008201527f6f776e6572000000000000000000000000000000000000000000000000000000602082015250565b600061354960258361257b565b9150613554826134ed565b604082019050919050565b600060208201905081810360008301526135788161353c565b9050919050565b7f4552433732313a207472616e7366657220746f20746865207a65726f2061646460008201527f7265737300000000000000000000000000000000000000000000000000000000602082015250565b60006135db60248361257b565b91506135e68261357f565b604082019050919050565b6000602082019050818103600083015261360a816135ce565b9050919050565b7f4f776e61626c653a2063616c6c6572206973206e6f7420746865206f776e6572600082015250565b600061364760208361257b565b915061365282613611565b602082019050919050565b600060208201905081810360008301526136768161363a565b9050919050565b7f4552433732313a206d696e7420746f20746865207a65726f2061646472657373600082015250565b60006136b360208361257b565b91506136be8261367d565b602082019050919050565b600060208201905081810360008301526136e2816136a6565b9050919050565b7f4552433732313a20746f6b656e20616c7265616479206d696e74656400000000600082015250565b600061371f601c8361257b565b915061372a826136e9565b602082019050919050565b6000602082019050818103600083015261374e81613712565b9050919050565b7f4552433732313a20617070726f766520746f2063616c6c657200000000000000600082015250565b600061378b60198361257b565b915061379682613755565b602082019050919050565b600060208201905081810360008301526137ba8161377e565b9050919050565b7f4552433732313a207472616e7366657220746f206e6f6e20455243373231526560008201527f63656976657220696d706c656d656e7465720000000000000000000000000000602082015250565b600061381d60328361257b565b9150613828826137c1565b604082019050919050565b6000602082019050818103600083015261384c81613810565b9050919050565b7f4e487b7100000000000000000000000000000000000000000000000000000000600052601260045260246000fd5b7f455243373231456e756d657261626c653a20636f6e736563757469766520747260008201527f616e7366657273206e6f7420737570706f727465640000000000000000000000602082015250565b60006138de60358361257b565b91506138e982613882565b604082019050919050565b6000602082019050818103600083015261390d816138d1565b9050919050565b600081519050919050565b600082825260208201905092915050565b600061393b82613914565b613945818561391f565b935061395581856020860161258c565b61395e816125b6565b840191505092915050565b600060808201905061397e60008301876126b7565b61398b60208301866126b7565b613998604083018561274d565b81810360608301526139aa8184613930565b905095945050505050565b6000815190506139c4816124e1565b92915050565b6000602082840312156139e0576139df6124ab565b5b60006139ee848285016139b5565b91505092915050565b6000613a0282612622565b9150613a0d83612622565b9250828203905081811115613a2557613a24613106565b5b92915050565b7f4e487b7100000000000000000000000000000000000000000000000000000000600052603160045260246000fdfea2646970667358221220f9284e7308792586b1755569b6fd8cb3f1f3abb60361ba2665b69f3ab4ea9a6a64736f6c63430008130033",
  "immutableReferences": {},
  "source": "// SPDX-License-Identifier: MIT\npragma solidity ^0.8.0;\n\nimport \"@openzeppelin/contracts/token/ERC721/extensions/ERC721Enumerable.sol\";\nimport \"@openzeppelin/contracts/access/Ownable.sol\";\n\ncontract Ticket is ERC721Enumerable, Ownable {\n    uint256 private _tokenId;\n\n    struct TicketData {\n        string title;\n        string venue;\n        uint256 date;\n        uint256 price;\n        string imageURI;\n    }\n\n    mapping(uint256 => TicketData) public tickets;\n\n    constructor() ERC721(\"TicketToken\", \"TICK\") {}\n\n    function mintTicket(\n        string memory title,\n        string memory venue,\n        uint256 date,\n        uint256 price,\n        string memory imageURI\n    ) public onlyOwner {\n        _tokenId++;\n        tickets[_tokenId] = TicketData(title, venue, date, price, imageURI);\n        _mint(msg.sender, _tokenId);\n    }\n\n    function buyTicket(uint256 tokenId) public payable {\n        require(msg.value == tickets[tokenId].price, \"Incorrect payment amount\");\n        address owner = ownerOf(tokenId);\n        payable(owner).transfer(msg.value);\n        _transfer(owner, msg.sender, tokenId);\n    }\n}\n",
  "sourcePath": "C:\\Users\\benis\\Documents\\Beni\\UoT\\HW\\Unit 23\\FinTech_BC_Unit21_HW\\TKT-App-Project-3\\ticket-dapp\\contracts\\Ticket.sol",
  "compiler": {
    "name": "solc",
    "version": "0.8.19+commit.7dd6d404.Emscripten.clang"
  },
  "schemaVersion": "3.4.13",
  "updatedAt": "2023-05-12T21:48:35.775Z",
  "networkType": "ethereum",
  "devdoc": {
    "events": {
      "Approval(address,address,uint256)": {
        "details": "Emitted when `owner` enables `approved` to manage the `tokenId` token."
      },
      "ApprovalForAll(address,address,bool)": {
        "details": "Emitted when `owner` enables or disables (`approved`) `operator` to manage all of its assets."
      },
      "Transfer(address,address,uint256)": {
        "details": "Emitted when `tokenId` token is transferred from `from` to `to`."
      }
    },
    "kind": "dev",
    "methods": {
      "approve(address,uint256)": {
        "details": "See {IERC721-approve}."
      },
      "balanceOf(address)": {
        "details": "See {IERC721-balanceOf}."
      },
      "getApproved(uint256)": {
        "details": "See {IERC721-getApproved}."
      },
      "isApprovedForAll(address,address)": {
        "details": "See {IERC721-isApprovedForAll}."
      },
      "name()": {
        "details": "See {IERC721Metadata-name}."
      },
      "owner()": {
        "details": "Returns the address of the current owner."
      },
      "ownerOf(uint256)": {
        "details": "See {IERC721-ownerOf}."
      },
      "renounceOwnership()": {
        "details": "Leaves the contract without owner. It will not be possible to call `onlyOwner` functions anymore. Can only be called by the current owner. NOTE: Renouncing ownership will leave the contract without an owner, thereby removing any functionality that is only available to the owner."
      },
      "safeTransferFrom(address,address,uint256)": {
        "details": "See {IERC721-safeTransferFrom}."
      },
      "safeTransferFrom(address,address,uint256,bytes)": {
        "details": "See {IERC721-safeTransferFrom}."
      },
      "setApprovalForAll(address,bool)": {
        "details": "See {IERC721-setApprovalForAll}."
      },
      "supportsInterface(bytes4)": {
        "details": "See {IERC165-supportsInterface}."
      },
      "symbol()": {
        "details": "See {IERC721Metadata-symbol}."
      },
      "tokenByIndex(uint256)": {
        "details": "See {IERC721Enumerable-tokenByIndex}."
      },
      "tokenOfOwnerByIndex(address,uint256)": {
        "details": "See {IERC721Enumerable-tokenOfOwnerByIndex}."
      },
      "tokenURI(uint256)": {
        "details": "See {IERC721Metadata-tokenURI}."
      },
      "totalSupply()": {
        "details": "See {IERC721Enumerable-totalSupply}."
      },
      "transferFrom(address,address,uint256)": {
        "details": "See {IERC721-transferFrom}."
      },
      "transferOwnership(address)": {
        "details": "Transfers ownership of the contract to a new account (`newOwner`). Can only be called by the current owner."
      }
    },
    "version": 1
  },
  "userdoc": {
    "kind": "user",
    "methods": {},
    "version": 1
  }
}